{
  "contractName": "DAO",
  "abi": [
    {
      "inputs": [
        {
          "internalType": "uint256",
          "name": "_paticipationTimeEnd",
          "type": "uint256"
        },
        {
          "internalType": "uint256",
          "name": "_voteTime",
          "type": "uint256"
        },
        {
          "internalType": "uint256",
          "name": "_quorum",
          "type": "uint256"
        }
      ],
      "stateMutability": "nonpayable",
      "type": "constructor"
    },
    {
      "inputs": [],
      "name": "availableFunds",
      "outputs": [
        {
          "internalType": "uint256",
          "name": "",
          "type": "uint256"
        }
      ],
      "stateMutability": "view",
      "type": "function",
      "constant": true
    },
    {
      "inputs": [
        {
          "internalType": "uint256",
          "name": "",
          "type": "uint256"
        }
      ],
      "name": "investorList",
      "outputs": [
        {
          "internalType": "address",
          "name": "",
          "type": "address"
        }
      ],
      "stateMutability": "view",
      "type": "function",
      "constant": true
    },
    {
      "inputs": [
        {
          "internalType": "address",
          "name": "",
          "type": "address"
        }
      ],
      "name": "isInvestor",
      "outputs": [
        {
          "internalType": "bool",
          "name": "",
          "type": "bool"
        }
      ],
      "stateMutability": "view",
      "type": "function",
      "constant": true
    },
    {
      "inputs": [
        {
          "internalType": "address",
          "name": "",
          "type": "address"
        },
        {
          "internalType": "uint256",
          "name": "",
          "type": "uint256"
        }
      ],
      "name": "isVoted",
      "outputs": [
        {
          "internalType": "bool",
          "name": "",
          "type": "bool"
        }
      ],
      "stateMutability": "view",
      "type": "function",
      "constant": true
    },
    {
      "inputs": [],
      "name": "manager",
      "outputs": [
        {
          "internalType": "address",
          "name": "",
          "type": "address"
        }
      ],
      "stateMutability": "view",
      "type": "function",
      "constant": true
    },
    {
      "inputs": [],
      "name": "nextProposalId",
      "outputs": [
        {
          "internalType": "uint256",
          "name": "",
          "type": "uint256"
        }
      ],
      "stateMutability": "view",
      "type": "function",
      "constant": true
    },
    {
      "inputs": [
        {
          "internalType": "address",
          "name": "",
          "type": "address"
        }
      ],
      "name": "numOfshares",
      "outputs": [
        {
          "internalType": "uint256",
          "name": "",
          "type": "uint256"
        }
      ],
      "stateMutability": "view",
      "type": "function",
      "constant": true
    },
    {
      "inputs": [],
      "name": "paticipationTimeEnd",
      "outputs": [
        {
          "internalType": "uint256",
          "name": "",
          "type": "uint256"
        }
      ],
      "stateMutability": "view",
      "type": "function",
      "constant": true
    },
    {
      "inputs": [
        {
          "internalType": "uint256",
          "name": "",
          "type": "uint256"
        }
      ],
      "name": "proposals",
      "outputs": [
        {
          "internalType": "uint256",
          "name": "id",
          "type": "uint256"
        },
        {
          "internalType": "string",
          "name": "description",
          "type": "string"
        },
        {
          "internalType": "uint256",
          "name": "amount",
          "type": "uint256"
        },
        {
          "internalType": "address payable",
          "name": "recipient",
          "type": "address"
        },
        {
          "internalType": "uint256",
          "name": "votes",
          "type": "uint256"
        },
        {
          "internalType": "uint256",
          "name": "end",
          "type": "uint256"
        },
        {
          "internalType": "bool",
          "name": "isExecuted",
          "type": "bool"
        }
      ],
      "stateMutability": "view",
      "type": "function",
      "constant": true
    },
    {
      "inputs": [],
      "name": "quorum",
      "outputs": [
        {
          "internalType": "uint256",
          "name": "",
          "type": "uint256"
        }
      ],
      "stateMutability": "view",
      "type": "function",
      "constant": true
    },
    {
      "inputs": [],
      "name": "totalShares",
      "outputs": [
        {
          "internalType": "uint256",
          "name": "",
          "type": "uint256"
        }
      ],
      "stateMutability": "view",
      "type": "function",
      "constant": true
    },
    {
      "inputs": [],
      "name": "voteTime",
      "outputs": [
        {
          "internalType": "uint256",
          "name": "",
          "type": "uint256"
        }
      ],
      "stateMutability": "view",
      "type": "function",
      "constant": true
    },
    {
      "inputs": [
        {
          "internalType": "address",
          "name": "",
          "type": "address"
        },
        {
          "internalType": "address",
          "name": "",
          "type": "address"
        }
      ],
      "name": "withdrwalStatus",
      "outputs": [
        {
          "internalType": "bool",
          "name": "",
          "type": "bool"
        }
      ],
      "stateMutability": "view",
      "type": "function",
      "constant": true
    },
    {
      "inputs": [],
      "name": "contribution",
      "outputs": [],
      "stateMutability": "payable",
      "type": "function",
      "payable": true
    },
    {
      "inputs": [
        {
          "internalType": "uint256",
          "name": "amount",
          "type": "uint256"
        }
      ],
      "name": "reedemShare",
      "outputs": [],
      "stateMutability": "nonpayable",
      "type": "function"
    },
    {
      "inputs": [
        {
          "internalType": "uint256",
          "name": "amount",
          "type": "uint256"
        },
        {
          "internalType": "address",
          "name": "to",
          "type": "address"
        }
      ],
      "name": "transferShare",
      "outputs": [],
      "stateMutability": "nonpayable",
      "type": "function"
    },
    {
      "inputs": [
        {
          "internalType": "string",
          "name": "description",
          "type": "string"
        },
        {
          "internalType": "uint256",
          "name": "amount",
          "type": "uint256"
        },
        {
          "internalType": "address payable",
          "name": "recipient",
          "type": "address"
        }
      ],
      "name": "createProposal",
      "outputs": [],
      "stateMutability": "nonpayable",
      "type": "function"
    },
    {
      "inputs": [
        {
          "internalType": "uint256",
          "name": "proposalId",
          "type": "uint256"
        }
      ],
      "name": "voteProposal",
      "outputs": [],
      "stateMutability": "nonpayable",
      "type": "function"
    },
    {
      "inputs": [
        {
          "internalType": "uint256",
          "name": "proposalId",
          "type": "uint256"
        }
      ],
      "name": "executeProposal",
      "outputs": [],
      "stateMutability": "payable",
      "type": "function",
      "payable": true
    },
    {
      "inputs": [
        {
          "internalType": "address",
          "name": "to",
          "type": "address"
        }
      ],
      "name": "allow",
      "outputs": [],
      "stateMutability": "nonpayable",
      "type": "function"
    },
    {
      "inputs": [
        {
          "internalType": "address",
          "name": "to",
          "type": "address"
        }
      ],
      "name": "disallow",
      "outputs": [],
      "stateMutability": "nonpayable",
      "type": "function"
    },
    {
      "inputs": [
        {
          "internalType": "uint256",
          "name": "amount",
          "type": "uint256"
        }
      ],
      "name": "withdrawEther",
      "outputs": [],
      "stateMutability": "nonpayable",
      "type": "function"
    },
    {
      "inputs": [],
      "name": "ProposalList",
      "outputs": [
        {
          "components": [
            {
              "internalType": "uint256",
              "name": "id",
              "type": "uint256"
            },
            {
              "internalType": "string",
              "name": "description",
              "type": "string"
            },
            {
              "internalType": "uint256",
              "name": "amount",
              "type": "uint256"
            },
            {
              "internalType": "address payable",
              "name": "recipient",
              "type": "address"
            },
            {
              "internalType": "uint256",
              "name": "votes",
              "type": "uint256"
            },
            {
              "internalType": "uint256",
              "name": "end",
              "type": "uint256"
            },
            {
              "internalType": "bool",
              "name": "isExecuted",
              "type": "bool"
            }
          ],
          "internalType": "struct DAO.Proposal[]",
          "name": "",
          "type": "tuple[]"
        }
      ],
      "stateMutability": "view",
      "type": "function",
      "constant": true
    },
    {
      "inputs": [],
      "name": "investorsLists",
      "outputs": [
        {
          "internalType": "address[]",
          "name": "",
          "type": "address[]"
        }
      ],
      "stateMutability": "view",
      "type": "function",
      "constant": true
    }
  ],
  "bytecode": "0x60806040523480156200001157600080fd5b50604051620034de380380620034de833981810160405281019062000037919062000136565b600081118015620000485750606481105b6200008a576040517f08c379a0000000000000000000000000000000000000000000000000000000008152600401620000819062000219565b60405180910390fd5b82426200009891906200026a565b60088190555081600a8190555080600b8190555033600c60006101000a81548173ffffffffffffffffffffffffffffffffffffffff021916908373ffffffffffffffffffffffffffffffffffffffff160217905550505050620002c7565b600080fd5b6000819050919050565b6200011081620000fb565b81146200011c57600080fd5b50565b600081519050620001308162000105565b92915050565b600080600060608486031215620001525762000151620000f6565b5b600062000162868287016200011f565b935050602062000175868287016200011f565b925050604062000188868287016200011f565b9150509250925092565b600082825260208201905092915050565b7f5468652076616c75652073686f756c64206265206265747765656e203020616e60008201527f6420313030000000000000000000000000000000000000000000000000000000602082015250565b60006200020160258362000192565b91506200020e82620001a3565b604082019050919050565b600060208201905081810360008301526200023481620001f2565b9050919050565b7f4e487b7100000000000000000000000000000000000000000000000000000000600052601160045260246000fd5b60006200027782620000fb565b91506200028483620000fb565b9250827fffffffffffffffffffffffffffffffffffffffffffffffffffffffffffffffff03821115620002bc57620002bb6200023b565b5b828201905092915050565b61320780620002d76000396000f3fe60806040526004361061014b5760003560e01c806366efb832116100b6578063bcf93dd61161006f578063bcf93dd614610458578063c1188cff14610483578063cee2a9cf146104ac578063e65da429146104e9578063f242b77214610526578063ff9913e8146105635761014b565b806366efb8321461034a5780636ac1e01f146103755780636dfc10991461039e578063807896d5146103c95780638ee36f05146103f2578063a9ed9cb81461042f5761014b565b80632ab09d14116101085780632ab09d141461026b5780633a98ef39146102965780633bed33ce146102c157806346fcff4c146102ea578063481c6a751461031557806350520b1f146103405761014b565b8063013cf08b14610150578063039383e6146101935780630d61b519146101bc5780630d6fd324146101d857806312f9b48e146102035780631703a01814610240575b600080fd5b34801561015c57600080fd5b5061017760048036038101906101729190611ff2565b61058c565b60405161018a9796959493929190612123565b60405180910390f35b34801561019f57600080fd5b506101ba60048036038101906101b591906121d7565b610683565b005b6101d660048036038101906101d19190611ff2565b610983565b005b3480156101e457600080fd5b506101ed610c44565b6040516101fa91906122d5565b60405180910390f35b34801561020f57600080fd5b5061022a60048036038101906102259190611ff2565b610cd2565b6040516102379190612306565b60405180910390f35b34801561024c57600080fd5b50610255610d11565b6040516102629190612321565b60405180910390f35b34801561027757600080fd5b50610280610d17565b60405161028d9190612321565b60405180910390f35b3480156102a257600080fd5b506102ab610d1d565b6040516102b89190612321565b60405180910390f35b3480156102cd57600080fd5b506102e860048036038101906102e39190611ff2565b610d23565b005b3480156102f657600080fd5b506102ff610f16565b60405161030c9190612321565b60405180910390f35b34801561032157600080fd5b5061032a610f1c565b6040516103379190612306565b60405180910390f35b610348610f42565b005b34801561035657600080fd5b5061035f61110e565b60405161036c9190612321565b60405180910390f35b34801561038157600080fd5b5061039c600480360381019061039791906123cd565b611114565b005b3480156103aa57600080fd5b506103b361136d565b6040516103c09190612616565b60405180910390f35b3480156103d557600080fd5b506103f060048036038101906103eb9190611ff2565b611558565b005b3480156103fe57600080fd5b5061041960048036038101906104149190612638565b61182f565b6040516104269190612678565b60405180910390f35b34801561043b57600080fd5b5061045660048036038101906104519190612693565b61185e565b005b34801561046457600080fd5b5061046d6119a8565b60405161047a9190612321565b60405180910390f35b34801561048f57600080fd5b506104aa60048036038101906104a59190611ff2565b6119ae565b005b3480156104b857600080fd5b506104d360048036038101906104ce9190612693565b611c60565b6040516104e09190612678565b60405180910390f35b3480156104f557600080fd5b50610510600480360381019061050b9190612693565b611c80565b60405161051d9190612321565b60405180910390f35b34801561053257600080fd5b5061054d600480360381019061054891906126c0565b611c98565b60405161055a9190612678565b60405180910390f35b34801561056f57600080fd5b5061058a60048036038101906105859190612693565b611cc7565b005b60056020528060005260406000206000915090508060000154908060010180546105b59061272f565b80601f01602080910402602001604051908101604052809291908181526020018280546105e19061272f565b801561062e5780601f106106035761010080835404028352916020019161062e565b820191906000526020600020905b81548152906001019060200180831161061157829003601f168201915b5050505050908060020154908060030160009054906101000a900473ffffffffffffffffffffffffffffffffffffffff16908060040154908060050154908060060160009054906101000a900460ff16905087565b600115156000803373ffffffffffffffffffffffffffffffffffffffff1673ffffffffffffffffffffffffffffffffffffffff16815260200190815260200160002060009054906101000a900460ff16151514610715576040517f08c379a000000000000000000000000000000000000000000000000000000000815260040161070c906127ad565b60405180910390fd5b81600160003373ffffffffffffffffffffffffffffffffffffffff1673ffffffffffffffffffffffffffffffffffffffff168152602001908152602001600020541015610797576040517f08c379a000000000000000000000000000000000000000000000000000000000815260040161078e90612819565b60405180910390fd5b8160075410156107dc576040517f08c379a00000000000000000000000000000000000000000000000000000000081526004016107d390612885565b60405180910390fd5b81600160003373ffffffffffffffffffffffffffffffffffffffff1673ffffffffffffffffffffffffffffffffffffffff168152602001908152602001600020600082825461082b91906128d4565b925050819055506000600160003373ffffffffffffffffffffffffffffffffffffffff1673ffffffffffffffffffffffffffffffffffffffff1681526020019081526020016000205414156108d25760008060003373ffffffffffffffffffffffffffffffffffffffff1673ffffffffffffffffffffffffffffffffffffffff16815260200190815260200160002060006101000a81548160ff0219169083151502179055505b81600160008373ffffffffffffffffffffffffffffffffffffffff1673ffffffffffffffffffffffffffffffffffffffff16815260200190815260200160002060008282546109219190612908565b9250508190555060016000808373ffffffffffffffffffffffffffffffffffffffff1673ffffffffffffffffffffffffffffffffffffffff16815260200190815260200160002060006101000a81548160ff0219169083151502179055505050565b600c60009054906101000a900473ffffffffffffffffffffffffffffffffffffffff1673ffffffffffffffffffffffffffffffffffffffff163373ffffffffffffffffffffffffffffffffffffffff1614610a13576040517f08c379a0000000000000000000000000000000000000000000000000000000008152600401610a0a906129d0565b60405180910390fd5b60006005600083815260200190815260200160002090508060050154421115610a71576040517f08c379a0000000000000000000000000000000000000000000000000000000008152600401610a6890612a3c565b60405180910390fd5b600015158160060160009054906101000a900460ff16151514610ac9576040517f08c379a0000000000000000000000000000000000000000000000000000000008152600401610ac090612ace565b60405180910390fd5b60006064600b54600654610add9190612aee565b610ae79190612b77565b90508082600401541015610b30576040517f08c379a0000000000000000000000000000000000000000000000000000000008152600401610b2790612c1a565b60405180910390fd5b60018260060160006101000a81548160ff02191690831515021790555060008260030160009054906101000a900473ffffffffffffffffffffffffffffffffffffffff1673ffffffffffffffffffffffffffffffffffffffff168360020154604051610b9b90612c6b565b60006040518083038185875af1925050503d8060008114610bd8576040519150601f19603f3d011682016040523d82523d6000602084013e610bdd565b606091505b5050905080610c21576040517f08c379a0000000000000000000000000000000000000000000000000000000008152600401610c1890612ccc565b60405180910390fd5b826002015460076000828254610c3791906128d4565b9250508190555050505050565b60606004805480602002602001604051908101604052809291908181526020018280548015610cc857602002820191906000526020600020905b8160009054906101000a900473ffffffffffffffffffffffffffffffffffffffff1673ffffffffffffffffffffffffffffffffffffffff1681526020019060010190808311610c7e575b5050505050905090565b60048181548110610ce257600080fd5b906000526020600020016000915054906101000a900473ffffffffffffffffffffffffffffffffffffffff1681565b600b5481565b60095481565b60065481565b6001151560036000600c60009054906101000a900473ffffffffffffffffffffffffffffffffffffffff1673ffffffffffffffffffffffffffffffffffffffff1673ffffffffffffffffffffffffffffffffffffffff16815260200190815260200160002060003373ffffffffffffffffffffffffffffffffffffffff1673ffffffffffffffffffffffffffffffffffffffff16815260200190815260200160002060009054906101000a900460ff16151514610e15576040517f08c379a0000000000000000000000000000000000000000000000000000000008152600401610e0c90612d38565b60405180910390fd5b60008060003373ffffffffffffffffffffffffffffffffffffffff1673ffffffffffffffffffffffffffffffffffffffff16815260200190815260200160002060006101000a81548160ff0219169083151502179055506000600160003373ffffffffffffffffffffffffffffffffffffffff1673ffffffffffffffffffffffffffffffffffffffff1681526020019081526020016000205490508060076000828254610ec291906128d4565b92505081905550610f12600160003373ffffffffffffffffffffffffffffffffffffffff1673ffffffffffffffffffffffffffffffffffffffff1681526020019081526020016000205433611e11565b5050565b60075481565b600c60009054906101000a900473ffffffffffffffffffffffffffffffffffffffff1681565b426008541015610f87576040517f08c379a0000000000000000000000000000000000000000000000000000000008152600401610f7e90612da4565b60405180910390fd5b60003411610fca576040517f08c379a0000000000000000000000000000000000000000000000000000000008152600401610fc190612e36565b60405180910390fd5b60016000803373ffffffffffffffffffffffffffffffffffffffff1673ffffffffffffffffffffffffffffffffffffffff16815260200190815260200160002060006101000a81548160ff02191690831515021790555034600160003373ffffffffffffffffffffffffffffffffffffffff1673ffffffffffffffffffffffffffffffffffffffff16815260200190815260200160002060008282546110709190612908565b9250508190555034600660008282546110899190612908565b9250508190555034600760008282546110a29190612908565b925050819055506004339080600181540180825580915050600190039060005260206000200160009091909190916101000a81548173ffffffffffffffffffffffffffffffffffffffff021916908373ffffffffffffffffffffffffffffffffffffffff160217905550565b60085481565b600115156000803373ffffffffffffffffffffffffffffffffffffffff1673ffffffffffffffffffffffffffffffffffffffff16815260200190815260200160002060009054906101000a900460ff161515146111a6576040517f08c379a000000000000000000000000000000000000000000000000000000000815260040161119d906127ad565b60405180910390fd5b6007548211156111eb576040517f08c379a00000000000000000000000000000000000000000000000000000000081526004016111e290612ea2565b60405180910390fd5b6040518060e00160405280600954815260200185858080601f016020809104026020016040519081016040528093929190818152602001838380828437600081840152601f19601f8201169050808301925050505050505081526020018381526020018273ffffffffffffffffffffffffffffffffffffffff16815260200160008152602001600a544261127f9190612908565b8152602001600015158152506005600060095481526020019081526020016000206000820151816000015560208201518160010190805190602001906112c6929190611eba565b506040820151816002015560608201518160030160006101000a81548173ffffffffffffffffffffffffffffffffffffffff021916908373ffffffffffffffffffffffffffffffffffffffff1602179055506080820151816004015560a0820151816005015560c08201518160060160006101000a81548160ff0219169083151502179055509050506009600081548092919061136290612ec2565b919050555050505050565b6060600060095467ffffffffffffffff81111561138d5761138c612f0b565b5b6040519080825280602002602001820160405280156113c657816020015b6113b3611f40565b8152602001906001900390816113ab5790505b50905060005b60095481101561155057600560008281526020019081526020016000206040518060e00160405290816000820154815260200160018201805461140e9061272f565b80601f016020809104026020016040519081016040528092919081815260200182805461143a9061272f565b80156114875780601f1061145c57610100808354040283529160200191611487565b820191906000526020600020905b81548152906001019060200180831161146a57829003601f168201915b50505050508152602001600282015481526020016003820160009054906101000a900473ffffffffffffffffffffffffffffffffffffffff1673ffffffffffffffffffffffffffffffffffffffff1673ffffffffffffffffffffffffffffffffffffffff16815260200160048201548152602001600582015481526020016006820160009054906101000a900460ff16151515158152505082828151811061153257611531612f3a565b5b6020026020010181905250808061154890612ec2565b9150506113cc565b508091505090565b600115156000803373ffffffffffffffffffffffffffffffffffffffff1673ffffffffffffffffffffffffffffffffffffffff16815260200190815260200160002060009054906101000a900460ff161515146115ea576040517f08c379a00000000000000000000000000000000000000000000000000000000081526004016115e1906127ad565b60405180910390fd5b600060056000838152602001908152602001600020905060001515600260003373ffffffffffffffffffffffffffffffffffffffff1673ffffffffffffffffffffffffffffffffffffffff168152602001908152602001600020600084815260200190815260200160002060009054906101000a900460ff161515146116a5576040517f08c379a000000000000000000000000000000000000000000000000000000000815260040161169c90612fdb565b60405180910390fd5b42600560008481526020019081526020016000206005015410156116fe576040517f08c379a00000000000000000000000000000000000000000000000000000000081526004016116f590613047565b60405180910390fd5b600015156005600084815260200190815260200160002060060160009054906101000a900460ff16151514611768576040517f08c379a000000000000000000000000000000000000000000000000000000000815260040161175f906130b3565b60405180910390fd5b6001600260003373ffffffffffffffffffffffffffffffffffffffff1673ffffffffffffffffffffffffffffffffffffffff168152602001908152602001600020600084815260200190815260200160002060006101000a81548160ff021916908315150217905550600160003373ffffffffffffffffffffffffffffffffffffffff1673ffffffffffffffffffffffffffffffffffffffff168152602001908152602001600020548160040160008282546118249190612908565b925050819055505050565b60026020528160005260406000206020528060005260406000206000915091509054906101000a900460ff1681565b600c60009054906101000a900473ffffffffffffffffffffffffffffffffffffffff1673ffffffffffffffffffffffffffffffffffffffff163373ffffffffffffffffffffffffffffffffffffffff16146118ee576040517f08c379a00000000000000000000000000000000000000000000000000000000081526004016118e5906129d0565b60405180910390fd5b600060036000600c60009054906101000a900473ffffffffffffffffffffffffffffffffffffffff1673ffffffffffffffffffffffffffffffffffffffff1673ffffffffffffffffffffffffffffffffffffffff16815260200190815260200160002060008373ffffffffffffffffffffffffffffffffffffffff1673ffffffffffffffffffffffffffffffffffffffff16815260200190815260200160002060006101000a81548160ff02191690831515021790555050565b600a5481565b600115156000803373ffffffffffffffffffffffffffffffffffffffff1673ffffffffffffffffffffffffffffffffffffffff16815260200190815260200160002060009054906101000a900460ff16151514611a40576040517f08c379a0000000000000000000000000000000000000000000000000000000008152600401611a37906127ad565b60405180910390fd5b80600160003373ffffffffffffffffffffffffffffffffffffffff1673ffffffffffffffffffffffffffffffffffffffff168152602001908152602001600020541015611ac2576040517f08c379a0000000000000000000000000000000000000000000000000000000008152600401611ab990613145565b60405180910390fd5b806007541015611b07576040517f08c379a0000000000000000000000000000000000000000000000000000000008152600401611afe90612885565b60405180910390fd5b80600160003373ffffffffffffffffffffffffffffffffffffffff1673ffffffffffffffffffffffffffffffffffffffff1681526020019081526020016000206000828254611b5691906128d4565b925050819055506000600160003373ffffffffffffffffffffffffffffffffffffffff1673ffffffffffffffffffffffffffffffffffffffff168152602001908152602001600020541415611bfd5760008060003373ffffffffffffffffffffffffffffffffffffffff1673ffffffffffffffffffffffffffffffffffffffff16815260200190815260200160002060006101000a81548160ff0219169083151502179055505b8060076000828254611c0f91906128d4565b925050819055503373ffffffffffffffffffffffffffffffffffffffff166108fc829081150290604051600060405180830381858888f19350505050158015611c5c573d6000803e3d6000fd5b5050565b60006020528060005260406000206000915054906101000a900460ff1681565b60016020528060005260406000206000915090505481565b60036020528160005260406000206020528060005260406000206000915091509054906101000a900460ff1681565b600c60009054906101000a900473ffffffffffffffffffffffffffffffffffffffff1673ffffffffffffffffffffffffffffffffffffffff163373ffffffffffffffffffffffffffffffffffffffff1614611d57576040517f08c379a0000000000000000000000000000000000000000000000000000000008152600401611d4e906129d0565b60405180910390fd5b600160036000600c60009054906101000a900473ffffffffffffffffffffffffffffffffffffffff1673ffffffffffffffffffffffffffffffffffffffff1673ffffffffffffffffffffffffffffffffffffffff16815260200190815260200160002060008373ffffffffffffffffffffffffffffffffffffffff1673ffffffffffffffffffffffffffffffffffffffff16815260200190815260200160002060006101000a81548160ff02191690831515021790555050565b600754821115611e56576040517f08c379a0000000000000000000000000000000000000000000000000000000008152600401611e4d906131b1565b60405180910390fd5b8160076000828254611e6891906128d4565b925050819055508073ffffffffffffffffffffffffffffffffffffffff166108fc839081150290604051600060405180830381858888f19350505050158015611eb5573d6000803e3d6000fd5b505050565b828054611ec69061272f565b90600052602060002090601f016020900481019282611ee85760008555611f2f565b82601f10611f0157805160ff1916838001178555611f2f565b82800160010185558215611f2f579182015b82811115611f2e578251825591602001919060010190611f13565b5b509050611f3c9190611f95565b5090565b6040518060e00160405280600081526020016060815260200160008152602001600073ffffffffffffffffffffffffffffffffffffffff16815260200160008152602001600081526020016000151581525090565b5b80821115611fae576000816000905550600101611f96565b5090565b600080fd5b600080fd5b6000819050919050565b611fcf81611fbc565b8114611fda57600080fd5b50565b600081359050611fec81611fc6565b92915050565b60006020828403121561200857612007611fb2565b5b600061201684828501611fdd565b91505092915050565b61202881611fbc565b82525050565b600081519050919050565b600082825260208201905092915050565b60005b8381101561206857808201518184015260208101905061204d565b83811115612077576000848401525b50505050565b6000601f19601f8301169050919050565b60006120998261202e565b6120a38185612039565b93506120b381856020860161204a565b6120bc8161207d565b840191505092915050565b600073ffffffffffffffffffffffffffffffffffffffff82169050919050565b60006120f2826120c7565b9050919050565b612102816120e7565b82525050565b60008115159050919050565b61211d81612108565b82525050565b600060e082019050612138600083018a61201f565b818103602083015261214a818961208e565b9050612159604083018861201f565b61216660608301876120f9565b612173608083018661201f565b61218060a083018561201f565b61218d60c0830184612114565b98975050505050505050565b60006121a4826120c7565b9050919050565b6121b481612199565b81146121bf57600080fd5b50565b6000813590506121d1816121ab565b92915050565b600080604083850312156121ee576121ed611fb2565b5b60006121fc85828601611fdd565b925050602061220d858286016121c2565b9150509250929050565b600081519050919050565b600082825260208201905092915050565b6000819050602082019050919050565b61224c81612199565b82525050565b600061225e8383612243565b60208301905092915050565b6000602082019050919050565b600061228282612217565b61228c8185612222565b935061229783612233565b8060005b838110156122c85781516122af8882612252565b97506122ba8361226a565b92505060018101905061229b565b5085935050505092915050565b600060208201905081810360008301526122ef8184612277565b905092915050565b61230081612199565b82525050565b600060208201905061231b60008301846122f7565b92915050565b6000602082019050612336600083018461201f565b92915050565b600080fd5b600080fd5b600080fd5b60008083601f8401126123615761236061233c565b5b8235905067ffffffffffffffff81111561237e5761237d612341565b5b60208301915083600182028301111561239a57612399612346565b5b9250929050565b6123aa816120e7565b81146123b557600080fd5b50565b6000813590506123c7816123a1565b92915050565b600080600080606085870312156123e7576123e6611fb2565b5b600085013567ffffffffffffffff81111561240557612404611fb7565b5b6124118782880161234b565b9450945050602061242487828801611fdd565b9250506040612435878288016123b8565b91505092959194509250565b600081519050919050565b600082825260208201905092915050565b6000819050602082019050919050565b61247681611fbc565b82525050565b600082825260208201905092915050565b60006124988261202e565b6124a2818561247c565b93506124b281856020860161204a565b6124bb8161207d565b840191505092915050565b6124cf816120e7565b82525050565b6124de81612108565b82525050565b600060e0830160008301516124fc600086018261246d565b5060208301518482036020860152612514828261248d565b9150506040830151612529604086018261246d565b50606083015161253c60608601826124c6565b50608083015161254f608086018261246d565b5060a083015161256260a086018261246d565b5060c083015161257560c08601826124d5565b508091505092915050565b600061258c83836124e4565b905092915050565b6000602082019050919050565b60006125ac82612441565b6125b6818561244c565b9350836020820285016125c88561245d565b8060005b8581101561260457848403895281516125e58582612580565b94506125f083612594565b925060208a019950506001810190506125cc565b50829750879550505050505092915050565b6000602082019050818103600083015261263081846125a1565b905092915050565b6000806040838503121561264f5761264e611fb2565b5b600061265d858286016121c2565b925050602061266e85828601611fdd565b9150509250929050565b600060208201905061268d6000830184612114565b92915050565b6000602082840312156126a9576126a8611fb2565b5b60006126b7848285016121c2565b91505092915050565b600080604083850312156126d7576126d6611fb2565b5b60006126e5858286016121c2565b92505060206126f6858286016121c2565b9150509250929050565b7f4e487b7100000000000000000000000000000000000000000000000000000000600052602260045260246000fd5b6000600282049050600182168061274757607f821691505b6020821081141561275b5761275a612700565b5b50919050565b7f596f7520617265206e6f7420616e20696e766573746f72000000000000000000600082015250565b6000612797601783612039565b91506127a282612761565b602082019050919050565b600060208201905081810360008301526127c68161278a565b9050919050565b7f496e73756666696369656e742073686172657300000000000000000000000000600082015250565b6000612803601383612039565b915061280e826127cd565b602082019050919050565b60006020820190508181036000830152612832816127f6565b9050919050565b7f4e6f742073756666696369656e742066756e6473000000000000000000000000600082015250565b600061286f601483612039565b915061287a82612839565b602082019050919050565b6000602082019050818103600083015261289e81612862565b9050919050565b7f4e487b7100000000000000000000000000000000000000000000000000000000600052601160045260246000fd5b60006128df82611fbc565b91506128ea83611fbc565b9250828210156128fd576128fc6128a5565b5b828203905092915050565b600061291382611fbc565b915061291e83611fbc565b9250827fffffffffffffffffffffffffffffffffffffffffffffffffffffffffffffffff03821115612953576129526128a5565b5b828201905092915050565b7f4f6e6c7920746865206d616e616765722063616e20706572666f726d2074686960008201527f7320616374696f6e000000000000000000000000000000000000000000000000602082015250565b60006129ba602883612039565b91506129c58261295e565b604082019050919050565b600060208201905081810360008301526129e9816129ad565b9050919050565b7f566f74696e672068617320656e64656400000000000000000000000000000000600082015250565b6000612a26601083612039565b9150612a31826129f0565b602082019050919050565b60006020820190508181036000830152612a5581612a19565b9050919050565b7f50726f706f73616c2068617320616c7265616479206265656e2065786563757460008201527f6564000000000000000000000000000000000000000000000000000000000000602082015250565b6000612ab8602283612039565b9150612ac382612a5c565b604082019050919050565b60006020820190508181036000830152612ae781612aab565b9050919050565b6000612af982611fbc565b9150612b0483611fbc565b9250817fffffffffffffffffffffffffffffffffffffffffffffffffffffffffffffffff0483118215151615612b3d57612b3c6128a5565b5b828202905092915050565b7f4e487b7100000000000000000000000000000000000000000000000000000000600052601260045260246000fd5b6000612b8282611fbc565b9150612b8d83611fbc565b925082612b9d57612b9c612b48565b5b828204905092915050565b7f50726f706f73616c20646f6573206e6f74206861766520656e6f75676820766f60008201527f7465730000000000000000000000000000000000000000000000000000000000602082015250565b6000612c04602383612039565b9150612c0f82612ba8565b604082019050919050565b60006020820190508181036000830152612c3381612bf7565b9050919050565b600081905092915050565b50565b6000612c55600083612c3a565b9150612c6082612c45565b600082019050919050565b6000612c7682612c48565b9150819050919050565b7f4661696c656420746f2065786563757465207472616e73666572000000000000600082015250565b6000612cb6601a83612039565b9150612cc182612c80565b602082019050919050565b60006020820190508181036000830152612ce581612ca9565b9050919050565b7f596f7520617265206e6f7420616c6c6f77656420746f20776974686472617700600082015250565b6000612d22601f83612039565b9150612d2d82612cec565b602082019050919050565b60006020820190508181036000830152612d5181612d15565b9050919050565b7f436f6e747269627574696f6e2054696d6520456e646564000000000000000000600082015250565b6000612d8e601783612039565b9150612d9982612d58565b602082019050919050565b60006020820190508181036000830152612dbd81612d81565b9050919050565b7f496e766573746d656e7420616d6f756e742073686f756c64206265206772656160008201527f746572207468616e203000000000000000000000000000000000000000000000602082015250565b6000612e20602a83612039565b9150612e2b82612dc4565b604082019050919050565b60006020820190508181036000830152612e4f81612e13565b9050919050565b7f4e6f7420656e6f7567682066756e647300000000000000000000000000000000600082015250565b6000612e8c601083612039565b9150612e9782612e56565b602082019050919050565b60006020820190508181036000830152612ebb81612e7f565b9050919050565b6000612ecd82611fbc565b91507fffffffffffffffffffffffffffffffffffffffffffffffffffffffffffffffff821415612f0057612eff6128a5565b5b600182019050919050565b7f4e487b7100000000000000000000000000000000000000000000000000000000600052604160045260246000fd5b7f4e487b7100000000000000000000000000000000000000000000000000000000600052603260045260246000fd5b7f596f75206861766520616c726561647920766f74656420666f7220746869732060008201527f70726f706f73616c206964000000000000000000000000000000000000000000602082015250565b6000612fc5602b83612039565b9150612fd082612f69565b604082019050919050565b60006020820190508181036000830152612ff481612fb8565b9050919050565b7f566f74696e672074696d652068617320656e6465640000000000000000000000600082015250565b6000613031601583612039565b915061303c82612ffb565b602082019050919050565b6000602082019050818103600083015261306081613024565b9050919050565b7f546869732068617320616c726561647920657865637574656400000000000000600082015250565b600061309d601983612039565b91506130a882613067565b602082019050919050565b600060208201905081810360008301526130cc81613090565b9050919050565b7f596f7520646f206e6f7420686176652073756666696369656e7420736861726560008201527f7300000000000000000000000000000000000000000000000000000000000000602082015250565b600061312f602183612039565b915061313a826130d3565b604082019050919050565b6000602082019050818103600083015261315e81613122565b9050919050565b7f46756e6473206e6f7420617661696c61626c6500000000000000000000000000600082015250565b600061319b601383612039565b91506131a682613165565b602082019050919050565b600060208201905081810360008301526131ca8161318e565b905091905056fea26469706673582212201307cc041ae09017bee15fa009cf326077abb33e181f4301c8afca0cdddbfa3864736f6c634300080b0033",
  "immutableReferences": {},
  "source": "// SPDX-License-Identifier: GPL-3.0\r\npragma solidity >0.5.0 <0.9.0;\r\n\r\ncontract DAO {\r\n  \r\n  struct Proposal{\r\n    uint id;\r\n    string description;\r\n    uint amount;\r\n    address payable recipient;\r\n    uint votes;\r\n    uint end;\r\n    bool isExecuted;\r\n  }\r\n\r\n  mapping(address =>bool ) public isInvestor;//address is investor or not\r\n  mapping(address=>uint)  public numOfshares;//information about shares\r\n  mapping(address=>mapping(uint=>bool)) public isVoted;//voting information of an address for a proposal\r\n  mapping(address=>mapping(address=>bool)) public withdrwalStatus; //manager will set the status of withdrawal\r\n\r\n  address[] public investorList;\r\n  mapping(uint=>Proposal) public proposals; //ids and proposal\r\n  uint public totalShares;\r\n  uint public availableFunds;\r\n  uint public paticipationTimeEnd;\r\n  uint public nextProposalId;\r\n  uint public voteTime;\r\n  uint public quorum;\r\n  address public manager;\r\n\r\n  constructor(uint _paticipationTimeEnd,uint _voteTime,uint _quorum){\r\n    require(_quorum>0 && _quorum<100,\"The value should be between 0 and 100\");//quorum part mistake -2\r\n    paticipationTimeEnd=block.timestamp+_paticipationTimeEnd;\r\n    voteTime= _voteTime;\r\n    quorum= _quorum;\r\n    manager=msg.sender;\r\n  }\r\n\r\n  modifier onlyInvestor(){\r\n    require(isInvestor[msg.sender]==true,\"You are not an investor\");\r\n    _;\r\n  }\r\n  modifier onlyManager(){\r\n    require(msg.sender == manager, \"Only the manager can perform this action\");\r\n    _;\r\n  }\r\n\r\nfunction contribution() external payable{\r\n  require( paticipationTimeEnd>=block.timestamp,\"Contribution Time Ended\");\r\n  require(msg.value>0,\"Investment amount should be greater than 0\");\r\n  isInvestor[msg.sender]=true;\r\n  numOfshares[msg.sender]+=msg.value;\r\n  totalShares+=msg.value;\r\n  availableFunds+=msg.value;\r\n  investorList.push(msg.sender);\r\n}\r\n\r\n  function reedemShare(uint amount) external onlyInvestor(){//shares withdraw\r\n    require(numOfshares[msg.sender]>=amount,\"You do not have sufficient shares\");\r\n    require(availableFunds>=amount,\"Not sufficient funds\");\r\n    numOfshares[msg.sender]-=amount;\r\n    if(numOfshares[msg.sender]==0){\r\n      isInvestor[msg.sender]=false;\r\n    }\r\n    availableFunds-=amount;\r\n    payable(msg.sender).transfer(amount);\r\n  }\r\n\r\n  function transferShare(uint amount,address to) public onlyInvestor(){\r\n    require(numOfshares[msg.sender]>=amount,\"Insufficient shares\");\r\n    require(availableFunds>=amount,\"Not sufficient funds\");\r\n    numOfshares[msg.sender]-=amount;\r\n      if(numOfshares[msg.sender]==0){\r\n      isInvestor[msg.sender]=false;\r\n    }\r\n    numOfshares[to]+=amount;\r\n    isInvestor[to]=true;\r\n  }\r\n\r\n  function createProposal(string calldata description,uint amount,address payable recipient) public onlyInvestor() {\r\n    require(amount<=availableFunds,\"Not enough funds\");\r\n    proposals[nextProposalId]= Proposal(nextProposalId,description,amount,recipient,0,block.timestamp+voteTime,false);\r\n    nextProposalId++;\r\n  }\r\n\r\n  function voteProposal(uint proposalId) public onlyInvestor(){\r\n    Proposal storage proposal = proposals[proposalId];\r\n    require(isVoted[msg.sender][proposalId]==false,\"You have already voted for this proposal id\");\r\n    require(proposals[proposalId].end>=block.timestamp,\"Voting time has ended\");\r\n    require(proposals[proposalId].isExecuted==false,\"This has already executed\");//mistake - 3\r\n    isVoted[msg.sender][proposalId]=true;\r\n    proposal.votes+=numOfshares[msg.sender];\r\n  }\r\n\r\nfunction executeProposal(uint proposalId) external payable onlyManager() {\r\n    Proposal storage proposal = proposals[proposalId];\r\n    require(block.timestamp <= proposal.end, \"Voting has ended\");\r\n    require(proposal.isExecuted == false, \"Proposal has already been executed\");\r\n\r\n    uint votesNeeded = (totalShares * quorum) / 100;\r\n    require(proposal.votes >= votesNeeded, \"Proposal does not have enough votes\");\r\n\r\n    proposal.isExecuted = true;\r\n    (bool success, ) = proposal.recipient.call{value: proposal.amount}(\"\");\r\n    require(success, \"Failed to execute transfer\");\r\n\r\n    availableFunds -= proposal.amount; // decrease available funds after executing proposal\r\n}\r\n\r\n\r\nfunction _transfer(uint amount,address payable to) internal{\r\n    require(amount <= availableFunds, 'Funds not available');\r\n    availableFunds -= amount;\r\n    to.transfer(amount);\r\n}\r\n\r\nfunction allow(address to) public onlyManager(){\r\n  withdrwalStatus[manager][to]=true;\r\n}\r\nfunction disallow(address to) public onlyManager(){\r\n  withdrwalStatus[manager][to]=false;\r\n}\r\n\r\nfunction withdrawEther(uint amount) public {\r\n  require(withdrwalStatus[manager][msg.sender]==true,\"You are not allowed to withdraw\");\r\n  isInvestor[msg.sender]=false;\r\n  uint amount = numOfshares[msg.sender] ;\r\n  availableFunds -= amount; // Use availableFunds instead of totalAvailableFunds\r\n  _transfer(numOfshares[msg.sender],payable(msg.sender));\r\n}\r\n\r\nfunction ProposalList() public view returns(Proposal[] memory) {\r\n  Proposal[] memory arr=new Proposal[](nextProposalId);\r\n    for(uint i=0;i<nextProposalId;i++){\r\n      arr[i]=proposals[i];\r\n    }\r\n  return arr;\r\n}\r\nfunction investorsLists() public view returns(address[] memory){\r\n  return investorList;\r\n}\r\n  \r\n}\r\n",
  "sourcePath": "E:\\placement\\CORE SUB\\Blockchain\\Code eater course\\Projects\\DAO\\DAO_Nik\\contracts\\dao.sol",
  "compiler": {
    "name": "solc",
    "version": "0.8.11+commit.d7f03943.Emscripten.clang"
  },
  "schemaVersion": "3.4.11",
  "updatedAt": "2023-03-25T09:48:30.725Z",
  "networkType": "ethereum",
  "devdoc": {
    "kind": "dev",
    "methods": {},
    "version": 1
  },
  "userdoc": {
    "kind": "user",
    "methods": {},
    "version": 1
  }
}