{
  "contractName": "DAO",
  "abi": [
    {
      "inputs": [
        {
          "internalType": "uint256",
          "name": "_paticipationTimeEnd",
          "type": "uint256"
        },
        {
          "internalType": "uint256",
          "name": "_voteTime",
          "type": "uint256"
        },
        {
          "internalType": "uint256",
          "name": "_quorum",
          "type": "uint256"
        }
      ],
      "stateMutability": "nonpayable",
      "type": "constructor"
    },
    {
      "inputs": [],
      "name": "availableFunds",
      "outputs": [
        {
          "internalType": "uint256",
          "name": "",
          "type": "uint256"
        }
      ],
      "stateMutability": "view",
      "type": "function",
      "constant": true
    },
    {
      "inputs": [
        {
          "internalType": "uint256",
          "name": "",
          "type": "uint256"
        }
      ],
      "name": "investorList",
      "outputs": [
        {
          "internalType": "address",
          "name": "",
          "type": "address"
        }
      ],
      "stateMutability": "view",
      "type": "function",
      "constant": true
    },
    {
      "inputs": [
        {
          "internalType": "address",
          "name": "",
          "type": "address"
        }
      ],
      "name": "isInvestor",
      "outputs": [
        {
          "internalType": "bool",
          "name": "",
          "type": "bool"
        }
      ],
      "stateMutability": "view",
      "type": "function",
      "constant": true
    },
    {
      "inputs": [
        {
          "internalType": "address",
          "name": "",
          "type": "address"
        },
        {
          "internalType": "uint256",
          "name": "",
          "type": "uint256"
        }
      ],
      "name": "isVoted",
      "outputs": [
        {
          "internalType": "bool",
          "name": "",
          "type": "bool"
        }
      ],
      "stateMutability": "view",
      "type": "function",
      "constant": true
    },
    {
      "inputs": [],
      "name": "manager",
      "outputs": [
        {
          "internalType": "address",
          "name": "",
          "type": "address"
        }
      ],
      "stateMutability": "view",
      "type": "function",
      "constant": true
    },
    {
      "inputs": [],
      "name": "nextProposalId",
      "outputs": [
        {
          "internalType": "uint256",
          "name": "",
          "type": "uint256"
        }
      ],
      "stateMutability": "view",
      "type": "function",
      "constant": true
    },
    {
      "inputs": [
        {
          "internalType": "address",
          "name": "",
          "type": "address"
        }
      ],
      "name": "numOfshares",
      "outputs": [
        {
          "internalType": "uint256",
          "name": "",
          "type": "uint256"
        }
      ],
      "stateMutability": "view",
      "type": "function",
      "constant": true
    },
    {
      "inputs": [],
      "name": "paticipationTimeEnd",
      "outputs": [
        {
          "internalType": "uint256",
          "name": "",
          "type": "uint256"
        }
      ],
      "stateMutability": "view",
      "type": "function",
      "constant": true
    },
    {
      "inputs": [
        {
          "internalType": "uint256",
          "name": "",
          "type": "uint256"
        }
      ],
      "name": "proposals",
      "outputs": [
        {
          "internalType": "uint256",
          "name": "id",
          "type": "uint256"
        },
        {
          "internalType": "string",
          "name": "description",
          "type": "string"
        },
        {
          "internalType": "uint256",
          "name": "amount",
          "type": "uint256"
        },
        {
          "internalType": "address payable",
          "name": "recipient",
          "type": "address"
        },
        {
          "internalType": "uint256",
          "name": "votes",
          "type": "uint256"
        },
        {
          "internalType": "uint256",
          "name": "end",
          "type": "uint256"
        },
        {
          "internalType": "bool",
          "name": "isExecuted",
          "type": "bool"
        }
      ],
      "stateMutability": "view",
      "type": "function",
      "constant": true
    },
    {
      "inputs": [],
      "name": "quorum",
      "outputs": [
        {
          "internalType": "uint256",
          "name": "",
          "type": "uint256"
        }
      ],
      "stateMutability": "view",
      "type": "function",
      "constant": true
    },
    {
      "inputs": [],
      "name": "totalShares",
      "outputs": [
        {
          "internalType": "uint256",
          "name": "",
          "type": "uint256"
        }
      ],
      "stateMutability": "view",
      "type": "function",
      "constant": true
    },
    {
      "inputs": [],
      "name": "voteTime",
      "outputs": [
        {
          "internalType": "uint256",
          "name": "",
          "type": "uint256"
        }
      ],
      "stateMutability": "view",
      "type": "function",
      "constant": true
    },
    {
      "inputs": [
        {
          "internalType": "address",
          "name": "",
          "type": "address"
        },
        {
          "internalType": "address",
          "name": "",
          "type": "address"
        }
      ],
      "name": "withdrwalStatus",
      "outputs": [
        {
          "internalType": "bool",
          "name": "",
          "type": "bool"
        }
      ],
      "stateMutability": "view",
      "type": "function",
      "constant": true
    },
    {
      "inputs": [],
      "name": "contribution",
      "outputs": [],
      "stateMutability": "payable",
      "type": "function",
      "payable": true
    },
    {
      "inputs": [
        {
          "internalType": "uint256",
          "name": "amount",
          "type": "uint256"
        }
      ],
      "name": "reedemShare",
      "outputs": [],
      "stateMutability": "nonpayable",
      "type": "function"
    },
    {
      "inputs": [
        {
          "internalType": "uint256",
          "name": "amount",
          "type": "uint256"
        },
        {
          "internalType": "address",
          "name": "to",
          "type": "address"
        }
      ],
      "name": "transferShare",
      "outputs": [],
      "stateMutability": "nonpayable",
      "type": "function"
    },
    {
      "inputs": [
        {
          "internalType": "string",
          "name": "description",
          "type": "string"
        },
        {
          "internalType": "uint256",
          "name": "amount",
          "type": "uint256"
        },
        {
          "internalType": "address payable",
          "name": "recipient",
          "type": "address"
        }
      ],
      "name": "createProposal",
      "outputs": [],
      "stateMutability": "nonpayable",
      "type": "function"
    },
    {
      "inputs": [
        {
          "internalType": "uint256",
          "name": "proposalId",
          "type": "uint256"
        }
      ],
      "name": "voteProposal",
      "outputs": [],
      "stateMutability": "nonpayable",
      "type": "function"
    },
    {
      "inputs": [
        {
          "internalType": "uint256",
          "name": "proposalId",
          "type": "uint256"
        }
      ],
      "name": "executeProposal",
      "outputs": [],
      "stateMutability": "nonpayable",
      "type": "function"
    },
    {
      "inputs": [
        {
          "internalType": "address",
          "name": "_manager",
          "type": "address"
        },
        {
          "internalType": "address",
          "name": "to",
          "type": "address"
        }
      ],
      "name": "allow",
      "outputs": [],
      "stateMutability": "nonpayable",
      "type": "function"
    },
    {
      "inputs": [
        {
          "internalType": "address",
          "name": "_manager",
          "type": "address"
        },
        {
          "internalType": "address",
          "name": "to",
          "type": "address"
        }
      ],
      "name": "disallow",
      "outputs": [],
      "stateMutability": "nonpayable",
      "type": "function"
    },
    {
      "inputs": [],
      "name": "withdrawAllEther",
      "outputs": [],
      "stateMutability": "nonpayable",
      "type": "function"
    },
    {
      "inputs": [],
      "name": "ProposalList",
      "outputs": [
        {
          "components": [
            {
              "internalType": "uint256",
              "name": "id",
              "type": "uint256"
            },
            {
              "internalType": "string",
              "name": "description",
              "type": "string"
            },
            {
              "internalType": "uint256",
              "name": "amount",
              "type": "uint256"
            },
            {
              "internalType": "address payable",
              "name": "recipient",
              "type": "address"
            },
            {
              "internalType": "uint256",
              "name": "votes",
              "type": "uint256"
            },
            {
              "internalType": "uint256",
              "name": "end",
              "type": "uint256"
            },
            {
              "internalType": "bool",
              "name": "isExecuted",
              "type": "bool"
            }
          ],
          "internalType": "struct DAO.Proposal[]",
          "name": "",
          "type": "tuple[]"
        }
      ],
      "stateMutability": "view",
      "type": "function",
      "constant": true
    },
    {
      "inputs": [],
      "name": "investorsLists",
      "outputs": [
        {
          "internalType": "address[]",
          "name": "",
          "type": "address[]"
        }
      ],
      "stateMutability": "view",
      "type": "function",
      "constant": true
    }
  ],
  "bytecode": "0x60806040523480156200001157600080fd5b50604051620031b7380380620031b7833981810160405281019062000037919062000136565b600081118015620000485750606481105b6200008a576040517f08c379a0000000000000000000000000000000000000000000000000000000008152600401620000819062000219565b60405180910390fd5b82426200009891906200026a565b60088190555081600a8190555080600b8190555033600c60006101000a81548173ffffffffffffffffffffffffffffffffffffffff021916908373ffffffffffffffffffffffffffffffffffffffff160217905550505050620002c7565b600080fd5b6000819050919050565b6200011081620000fb565b81146200011c57600080fd5b50565b600081519050620001308162000105565b92915050565b600080600060608486031215620001525762000151620000f6565b5b600062000162868287016200011f565b935050602062000175868287016200011f565b925050604062000188868287016200011f565b9150509250925092565b600082825260208201905092915050565b7f5468652076616c75652073686f756c64206265206265747765656e203020616e60008201527f6420313030000000000000000000000000000000000000000000000000000000602082015250565b60006200020160258362000192565b91506200020e82620001a3565b604082019050919050565b600060208201905081810360008301526200023481620001f2565b9050919050565b7f4e487b7100000000000000000000000000000000000000000000000000000000600052601160045260246000fd5b60006200027782620000fb565b91506200028483620000fb565b9250827fffffffffffffffffffffffffffffffffffffffffffffffffffffffffffffffff03821115620002bc57620002bb6200023b565b5b828201905092915050565b612ee080620002d76000396000f3fe60806040526004361061014b5760003560e01c806366efb832116100b6578063bcf93dd61161006f578063bcf93dd614610453578063c1188cff1461047e578063c55ae038146104a7578063cee2a9cf146104d0578063e65da4291461050d578063f242b7721461054a5761014b565b806366efb832146103455780636ac1e01f146103705780636dfc109914610399578063775ad527146103c4578063807896d5146103ed5780638ee36f05146104165761014b565b80632ab09d14116101085780632ab09d141461027857806331c91117146102a35780633a98ef39146102ba57806346fcff4c146102e5578063481c6a751461031057806350520b1f1461033b5761014b565b8063013cf08b14610150578063039383e6146101935780630d61b519146101bc5780630d6fd324146101e557806312f9b48e146102105780631703a0181461024d575b600080fd5b34801561015c57600080fd5b5061017760048036038101906101729190611da3565b610587565b60405161018a9796959493929190611ed4565b60405180910390f35b34801561019f57600080fd5b506101ba60048036038101906101b59190611f88565b61067e565b005b3480156101c857600080fd5b506101e360048036038101906101de9190611da3565b61097e565b005b3480156101f157600080fd5b506101fa610ada565b6040516102079190612086565b60405180910390f35b34801561021c57600080fd5b5061023760048036038101906102329190611da3565b610b68565b60405161024491906120b7565b60405180910390f35b34801561025957600080fd5b50610262610ba7565b60405161026f91906120d2565b60405180910390f35b34801561028457600080fd5b5061028d610bad565b60405161029a91906120d2565b60405180910390f35b3480156102af57600080fd5b506102b8610bb3565b005b3480156102c657600080fd5b506102cf610d47565b6040516102dc91906120d2565b60405180910390f35b3480156102f157600080fd5b506102fa610d4d565b60405161030791906120d2565b60405180910390f35b34801561031c57600080fd5b50610325610d53565b60405161033291906120b7565b60405180910390f35b610343610d79565b005b34801561035157600080fd5b5061035a610f45565b60405161036791906120d2565b60405180910390f35b34801561037c57600080fd5b506103976004803603810190610392919061217e565b610f4b565b005b3480156103a557600080fd5b506103ae6111a4565b6040516103bb91906123c7565b60405180910390f35b3480156103d057600080fd5b506103eb60048036038101906103e691906123e9565b61138f565b005b3480156103f957600080fd5b50610414600480360381019061040f9190611da3565b611496565b005b34801561042257600080fd5b5061043d60048036038101906104389190612429565b61176d565b60405161044a9190612469565b60405180910390f35b34801561045f57600080fd5b5061046861179c565b60405161047591906120d2565b60405180910390f35b34801561048a57600080fd5b506104a560048036038101906104a09190611da3565b6117a2565b005b3480156104b357600080fd5b506104ce60048036038101906104c991906123e9565b611a54565b005b3480156104dc57600080fd5b506104f760048036038101906104f29190612484565b611b5b565b6040516105049190612469565b60405180910390f35b34801561051957600080fd5b50610534600480360381019061052f9190612484565b611b7b565b60405161054191906120d2565b60405180910390f35b34801561055657600080fd5b50610571600480360381019061056c91906123e9565b611b93565b60405161057e9190612469565b60405180910390f35b60056020528060005260406000206000915090508060000154908060010180546105b0906124e0565b80601f01602080910402602001604051908101604052809291908181526020018280546105dc906124e0565b80156106295780601f106105fe57610100808354040283529160200191610629565b820191906000526020600020905b81548152906001019060200180831161060c57829003601f168201915b5050505050908060020154908060030160009054906101000a900473ffffffffffffffffffffffffffffffffffffffff16908060040154908060050154908060060160009054906101000a900460ff16905087565b600115156000803373ffffffffffffffffffffffffffffffffffffffff1673ffffffffffffffffffffffffffffffffffffffff16815260200190815260200160002060009054906101000a900460ff16151514610710576040517f08c379a00000000000000000000000000000000000000000000000000000000081526004016107079061255e565b60405180910390fd5b81600160003373ffffffffffffffffffffffffffffffffffffffff1673ffffffffffffffffffffffffffffffffffffffff168152602001908152602001600020541015610792576040517f08c379a0000000000000000000000000000000000000000000000000000000008152600401610789906125ca565b60405180910390fd5b8160075410156107d7576040517f08c379a00000000000000000000000000000000000000000000000000000000081526004016107ce90612636565b60405180910390fd5b81600160003373ffffffffffffffffffffffffffffffffffffffff1673ffffffffffffffffffffffffffffffffffffffff16815260200190815260200160002060008282546108269190612685565b925050819055506000600160003373ffffffffffffffffffffffffffffffffffffffff1673ffffffffffffffffffffffffffffffffffffffff1681526020019081526020016000205414156108cd5760008060003373ffffffffffffffffffffffffffffffffffffffff1673ffffffffffffffffffffffffffffffffffffffff16815260200190815260200160002060006101000a81548160ff0219169083151502179055505b81600160008373ffffffffffffffffffffffffffffffffffffffff1673ffffffffffffffffffffffffffffffffffffffff168152602001908152602001600020600082825461091c91906126b9565b9250508190555060016000808373ffffffffffffffffffffffffffffffffffffffff1673ffffffffffffffffffffffffffffffffffffffff16815260200190815260200160002060006101000a81548160ff0219169083151502179055505050565b3373ffffffffffffffffffffffffffffffffffffffff16600c60009054906101000a900473ffffffffffffffffffffffffffffffffffffffff1673ffffffffffffffffffffffffffffffffffffffff1614610a0e576040517f08c379a0000000000000000000000000000000000000000000000000000000008152600401610a059061275b565b60405180910390fd5b6000600560008381526020019081526020016000209050600b5460065460648360040154610a3c919061277b565b610a469190612804565b1015610a87576040517f08c379a0000000000000000000000000000000000000000000000000000000008152600401610a7e90612881565b60405180910390fd5b60018160060160006101000a81548160ff021916908315150217905550610ad681600201548260030160009054906101000a900473ffffffffffffffffffffffffffffffffffffffff16611bc2565b5050565b60606004805480602002602001604051908101604052809291908181526020018280548015610b5e57602002820191906000526020600020905b8160009054906101000a900473ffffffffffffffffffffffffffffffffffffffff1673ffffffffffffffffffffffffffffffffffffffff1681526020019060010190808311610b14575b5050505050905090565b60048181548110610b7857600080fd5b906000526020600020016000915054906101000a900473ffffffffffffffffffffffffffffffffffffffff1681565b600b5481565b60095481565b6000151560036000600c60009054906101000a900473ffffffffffffffffffffffffffffffffffffffff1673ffffffffffffffffffffffffffffffffffffffff1673ffffffffffffffffffffffffffffffffffffffff16815260200190815260200160002060003373ffffffffffffffffffffffffffffffffffffffff1673ffffffffffffffffffffffffffffffffffffffff16815260200190815260200160002060009054906101000a900460ff16151514610ca5576040517f08c379a0000000000000000000000000000000000000000000000000000000008152600401610c9c906128ed565b60405180910390fd5b60008060003373ffffffffffffffffffffffffffffffffffffffff1673ffffffffffffffffffffffffffffffffffffffff16815260200190815260200160002060006101000a81548160ff021916908315150217905550610d45600160003373ffffffffffffffffffffffffffffffffffffffff1673ffffffffffffffffffffffffffffffffffffffff1681526020019081526020016000205433611bc2565b565b60065481565b60075481565b600c60009054906101000a900473ffffffffffffffffffffffffffffffffffffffff1681565b426008541015610dbe576040517f08c379a0000000000000000000000000000000000000000000000000000000008152600401610db590612959565b60405180910390fd5b60003411610e01576040517f08c379a0000000000000000000000000000000000000000000000000000000008152600401610df8906129eb565b60405180910390fd5b60016000803373ffffffffffffffffffffffffffffffffffffffff1673ffffffffffffffffffffffffffffffffffffffff16815260200190815260200160002060006101000a81548160ff02191690831515021790555034600160003373ffffffffffffffffffffffffffffffffffffffff1673ffffffffffffffffffffffffffffffffffffffff1681526020019081526020016000206000828254610ea791906126b9565b925050819055503460066000828254610ec091906126b9565b925050819055503460076000828254610ed991906126b9565b925050819055506004339080600181540180825580915050600190039060005260206000200160009091909190916101000a81548173ffffffffffffffffffffffffffffffffffffffff021916908373ffffffffffffffffffffffffffffffffffffffff160217905550565b60085481565b600115156000803373ffffffffffffffffffffffffffffffffffffffff1673ffffffffffffffffffffffffffffffffffffffff16815260200190815260200160002060009054906101000a900460ff16151514610fdd576040517f08c379a0000000000000000000000000000000000000000000000000000000008152600401610fd49061255e565b60405180910390fd5b600754821115611022576040517f08c379a000000000000000000000000000000000000000000000000000000000815260040161101990612a57565b60405180910390fd5b6040518060e00160405280600954815260200185858080601f016020809104026020016040519081016040528093929190818152602001838380828437600081840152601f19601f8201169050808301925050505050505081526020018381526020018273ffffffffffffffffffffffffffffffffffffffff16815260200160008152602001600a54426110b691906126b9565b8152602001600015158152506005600060095481526020019081526020016000206000820151816000015560208201518160010190805190602001906110fd929190611c6b565b506040820151816002015560608201518160030160006101000a81548173ffffffffffffffffffffffffffffffffffffffff021916908373ffffffffffffffffffffffffffffffffffffffff1602179055506080820151816004015560a0820151816005015560c08201518160060160006101000a81548160ff0219169083151502179055509050506009600081548092919061119990612a77565b919050555050505050565b6060600060095467ffffffffffffffff8111156111c4576111c3612ac0565b5b6040519080825280602002602001820160405280156111fd57816020015b6111ea611cf1565b8152602001906001900390816111e25790505b50905060005b60095481101561138757600560008281526020019081526020016000206040518060e001604052908160008201548152602001600182018054611245906124e0565b80601f0160208091040260200160405190810160405280929190818152602001828054611271906124e0565b80156112be5780601f10611293576101008083540402835291602001916112be565b820191906000526020600020905b8154815290600101906020018083116112a157829003601f168201915b50505050508152602001600282015481526020016003820160009054906101000a900473ffffffffffffffffffffffffffffffffffffffff1673ffffffffffffffffffffffffffffffffffffffff1673ffffffffffffffffffffffffffffffffffffffff16815260200160048201548152602001600582015481526020016006820160009054906101000a900460ff16151515158152505082828151811061136957611368612aef565b5b6020026020010181905250808061137f90612a77565b915050611203565b508091505090565b8173ffffffffffffffffffffffffffffffffffffffff163373ffffffffffffffffffffffffffffffffffffffff16146113fd576040517f08c379a00000000000000000000000000000000000000000000000000000000081526004016113f490612b90565b60405180910390fd5b6001600d60008473ffffffffffffffffffffffffffffffffffffffff1673ffffffffffffffffffffffffffffffffffffffff16815260200190815260200160002060008373ffffffffffffffffffffffffffffffffffffffff1673ffffffffffffffffffffffffffffffffffffffff16815260200190815260200160002060006101000a81548160ff0219169083151502179055505050565b600115156000803373ffffffffffffffffffffffffffffffffffffffff1673ffffffffffffffffffffffffffffffffffffffff16815260200190815260200160002060009054906101000a900460ff16151514611528576040517f08c379a000000000000000000000000000000000000000000000000000000000815260040161151f9061255e565b60405180910390fd5b600060056000838152602001908152602001600020905060001515600260003373ffffffffffffffffffffffffffffffffffffffff1673ffffffffffffffffffffffffffffffffffffffff168152602001908152602001600020600084815260200190815260200160002060009054906101000a900460ff161515146115e3576040517f08c379a00000000000000000000000000000000000000000000000000000000081526004016115da90612c22565b60405180910390fd5b426005600084815260200190815260200160002060050154101561163c576040517f08c379a000000000000000000000000000000000000000000000000000000000815260040161163390612c8e565b60405180910390fd5b600015156005600084815260200190815260200160002060060160009054906101000a900460ff161515146116a6576040517f08c379a000000000000000000000000000000000000000000000000000000000815260040161169d90612cfa565b60405180910390fd5b6001600260003373ffffffffffffffffffffffffffffffffffffffff1673ffffffffffffffffffffffffffffffffffffffff168152602001908152602001600020600084815260200190815260200160002060006101000a81548160ff021916908315150217905550600160003373ffffffffffffffffffffffffffffffffffffffff1673ffffffffffffffffffffffffffffffffffffffff1681526020019081526020016000205481600401600082825461176291906126b9565b925050819055505050565b60026020528160005260406000206020528060005260406000206000915091509054906101000a900460ff1681565b600a5481565b600115156000803373ffffffffffffffffffffffffffffffffffffffff1673ffffffffffffffffffffffffffffffffffffffff16815260200190815260200160002060009054906101000a900460ff16151514611834576040517f08c379a000000000000000000000000000000000000000000000000000000000815260040161182b9061255e565b60405180910390fd5b80600160003373ffffffffffffffffffffffffffffffffffffffff1673ffffffffffffffffffffffffffffffffffffffff1681526020019081526020016000205410156118b6576040517f08c379a00000000000000000000000000000000000000000000000000000000081526004016118ad90612d8c565b60405180910390fd5b8060075410156118fb576040517f08c379a00000000000000000000000000000000000000000000000000000000081526004016118f290612636565b60405180910390fd5b80600160003373ffffffffffffffffffffffffffffffffffffffff1673ffffffffffffffffffffffffffffffffffffffff168152602001908152602001600020600082825461194a9190612685565b925050819055506000600160003373ffffffffffffffffffffffffffffffffffffffff1673ffffffffffffffffffffffffffffffffffffffff1681526020019081526020016000205414156119f15760008060003373ffffffffffffffffffffffffffffffffffffffff1673ffffffffffffffffffffffffffffffffffffffff16815260200190815260200160002060006101000a81548160ff0219169083151502179055505b8060076000828254611a039190612685565b925050819055503373ffffffffffffffffffffffffffffffffffffffff166108fc829081150290604051600060405180830381858888f19350505050158015611a50573d6000803e3d6000fd5b5050565b8173ffffffffffffffffffffffffffffffffffffffff163373ffffffffffffffffffffffffffffffffffffffff1614611ac2576040517f08c379a0000000000000000000000000000000000000000000000000000000008152600401611ab990612e1e565b60405180910390fd5b6000600d60008473ffffffffffffffffffffffffffffffffffffffff1673ffffffffffffffffffffffffffffffffffffffff16815260200190815260200160002060008373ffffffffffffffffffffffffffffffffffffffff1673ffffffffffffffffffffffffffffffffffffffff16815260200190815260200160002060006101000a81548160ff0219169083151502179055505050565b60006020528060005260406000206000915054906101000a900460ff1681565b60016020528060005260406000206000915090505481565b60036020528160005260406000206020528060005260406000206000915091509054906101000a900460ff1681565b600754821115611c07576040517f08c379a0000000000000000000000000000000000000000000000000000000008152600401611bfe90612e8a565b60405180910390fd5b8160076000828254611c199190612685565b925050819055508073ffffffffffffffffffffffffffffffffffffffff166108fc839081150290604051600060405180830381858888f19350505050158015611c66573d6000803e3d6000fd5b505050565b828054611c77906124e0565b90600052602060002090601f016020900481019282611c995760008555611ce0565b82601f10611cb257805160ff1916838001178555611ce0565b82800160010185558215611ce0579182015b82811115611cdf578251825591602001919060010190611cc4565b5b509050611ced9190611d46565b5090565b6040518060e00160405280600081526020016060815260200160008152602001600073ffffffffffffffffffffffffffffffffffffffff16815260200160008152602001600081526020016000151581525090565b5b80821115611d5f576000816000905550600101611d47565b5090565b600080fd5b600080fd5b6000819050919050565b611d8081611d6d565b8114611d8b57600080fd5b50565b600081359050611d9d81611d77565b92915050565b600060208284031215611db957611db8611d63565b5b6000611dc784828501611d8e565b91505092915050565b611dd981611d6d565b82525050565b600081519050919050565b600082825260208201905092915050565b60005b83811015611e19578082015181840152602081019050611dfe565b83811115611e28576000848401525b50505050565b6000601f19601f8301169050919050565b6000611e4a82611ddf565b611e548185611dea565b9350611e64818560208601611dfb565b611e6d81611e2e565b840191505092915050565b600073ffffffffffffffffffffffffffffffffffffffff82169050919050565b6000611ea382611e78565b9050919050565b611eb381611e98565b82525050565b60008115159050919050565b611ece81611eb9565b82525050565b600060e082019050611ee9600083018a611dd0565b8181036020830152611efb8189611e3f565b9050611f0a6040830188611dd0565b611f176060830187611eaa565b611f246080830186611dd0565b611f3160a0830185611dd0565b611f3e60c0830184611ec5565b98975050505050505050565b6000611f5582611e78565b9050919050565b611f6581611f4a565b8114611f7057600080fd5b50565b600081359050611f8281611f5c565b92915050565b60008060408385031215611f9f57611f9e611d63565b5b6000611fad85828601611d8e565b9250506020611fbe85828601611f73565b9150509250929050565b600081519050919050565b600082825260208201905092915050565b6000819050602082019050919050565b611ffd81611f4a565b82525050565b600061200f8383611ff4565b60208301905092915050565b6000602082019050919050565b600061203382611fc8565b61203d8185611fd3565b935061204883611fe4565b8060005b838110156120795781516120608882612003565b975061206b8361201b565b92505060018101905061204c565b5085935050505092915050565b600060208201905081810360008301526120a08184612028565b905092915050565b6120b181611f4a565b82525050565b60006020820190506120cc60008301846120a8565b92915050565b60006020820190506120e76000830184611dd0565b92915050565b600080fd5b600080fd5b600080fd5b60008083601f840112612112576121116120ed565b5b8235905067ffffffffffffffff81111561212f5761212e6120f2565b5b60208301915083600182028301111561214b5761214a6120f7565b5b9250929050565b61215b81611e98565b811461216657600080fd5b50565b60008135905061217881612152565b92915050565b6000806000806060858703121561219857612197611d63565b5b600085013567ffffffffffffffff8111156121b6576121b5611d68565b5b6121c2878288016120fc565b945094505060206121d587828801611d8e565b92505060406121e687828801612169565b91505092959194509250565b600081519050919050565b600082825260208201905092915050565b6000819050602082019050919050565b61222781611d6d565b82525050565b600082825260208201905092915050565b600061224982611ddf565b612253818561222d565b9350612263818560208601611dfb565b61226c81611e2e565b840191505092915050565b61228081611e98565b82525050565b61228f81611eb9565b82525050565b600060e0830160008301516122ad600086018261221e565b50602083015184820360208601526122c5828261223e565b91505060408301516122da604086018261221e565b5060608301516122ed6060860182612277565b506080830151612300608086018261221e565b5060a083015161231360a086018261221e565b5060c083015161232660c0860182612286565b508091505092915050565b600061233d8383612295565b905092915050565b6000602082019050919050565b600061235d826121f2565b61236781856121fd565b9350836020820285016123798561220e565b8060005b858110156123b557848403895281516123968582612331565b94506123a183612345565b925060208a0199505060018101905061237d565b50829750879550505050505092915050565b600060208201905081810360008301526123e18184612352565b905092915050565b60008060408385031215612400576123ff611d63565b5b600061240e85828601611f73565b925050602061241f85828601611f73565b9150509250929050565b600080604083850312156124405761243f611d63565b5b600061244e85828601611f73565b925050602061245f85828601611d8e565b9150509250929050565b600060208201905061247e6000830184611ec5565b92915050565b60006020828403121561249a57612499611d63565b5b60006124a884828501611f73565b91505092915050565b7f4e487b7100000000000000000000000000000000000000000000000000000000600052602260045260246000fd5b600060028204905060018216806124f857607f821691505b6020821081141561250c5761250b6124b1565b5b50919050565b7f596f7520617265206e6f7420616e20696e766573746f72000000000000000000600082015250565b6000612548601783611dea565b915061255382612512565b602082019050919050565b600060208201905081810360008301526125778161253b565b9050919050565b7f496e73756666696369656e742073686172657300000000000000000000000000600082015250565b60006125b4601383611dea565b91506125bf8261257e565b602082019050919050565b600060208201905081810360008301526125e3816125a7565b9050919050565b7f4e6f742073756666696369656e742066756e6473000000000000000000000000600082015250565b6000612620601483611dea565b915061262b826125ea565b602082019050919050565b6000602082019050818103600083015261264f81612613565b9050919050565b7f4e487b7100000000000000000000000000000000000000000000000000000000600052601160045260246000fd5b600061269082611d6d565b915061269b83611d6d565b9250828210156126ae576126ad612656565b5b828203905092915050565b60006126c482611d6d565b91506126cf83611d6d565b9250827fffffffffffffffffffffffffffffffffffffffffffffffffffffffffffffffff0382111561270457612703612656565b5b828201905092915050565b7f596f7520617265206e6f742061206d616e616765720000000000000000000000600082015250565b6000612745601583611dea565b91506127508261270f565b602082019050919050565b6000602082019050818103600083015261277481612738565b9050919050565b600061278682611d6d565b915061279183611d6d565b9250817fffffffffffffffffffffffffffffffffffffffffffffffffffffffffffffffff04831182151516156127ca576127c9612656565b5b828202905092915050565b7f4e487b7100000000000000000000000000000000000000000000000000000000600052601260045260246000fd5b600061280f82611d6d565b915061281a83611d6d565b92508261282a576128296127d5565b5b828204905092915050565b7f4e6f742067726561746572207468616e207468652071756f72756d0000000000600082015250565b600061286b601b83611dea565b915061287682612835565b602082019050919050565b6000602082019050818103600083015261289a8161285e565b9050919050565b7f596f7520617265206e6f7420616c6c6f77656420746f20776974686472617700600082015250565b60006128d7601f83611dea565b91506128e2826128a1565b602082019050919050565b60006020820190508181036000830152612906816128ca565b9050919050565b7f436f6e747269627574696f6e2054696d6520456e646564000000000000000000600082015250565b6000612943601783611dea565b915061294e8261290d565b602082019050919050565b6000602082019050818103600083015261297281612936565b9050919050565b7f496e76657374696d656e7420616d6f756e742073686f756c642062652067726560008201527f61746572207468616e2030000000000000000000000000000000000000000000602082015250565b60006129d5602b83611dea565b91506129e082612979565b604082019050919050565b60006020820190508181036000830152612a04816129c8565b9050919050565b7f4e6f7420656e6f7567682066756e647300000000000000000000000000000000600082015250565b6000612a41601083611dea565b9150612a4c82612a0b565b602082019050919050565b60006020820190508181036000830152612a7081612a34565b9050919050565b6000612a8282611d6d565b91507fffffffffffffffffffffffffffffffffffffffffffffffffffffffffffffffff821415612ab557612ab4612656565b5b600182019050919050565b7f4e487b7100000000000000000000000000000000000000000000000000000000600052604160045260246000fd5b7f4e487b7100000000000000000000000000000000000000000000000000000000600052603260045260246000fd5b7f4f6e6c7920746865206d616e616765722063616e20616c6c6f7720776974686460008201527f726177616c730000000000000000000000000000000000000000000000000000602082015250565b6000612b7a602683611dea565b9150612b8582612b1e565b604082019050919050565b60006020820190508181036000830152612ba981612b6d565b9050919050565b7f596f75206861766520616c726561647920766f74656420666f7220746869732060008201527f70726f706f73616c206964000000000000000000000000000000000000000000602082015250565b6000612c0c602b83611dea565b9150612c1782612bb0565b604082019050919050565b60006020820190508181036000830152612c3b81612bff565b9050919050565b7f566f74696e672074696d652068617320656e6465640000000000000000000000600082015250565b6000612c78601583611dea565b9150612c8382612c42565b602082019050919050565b60006020820190508181036000830152612ca781612c6b565b9050919050565b7f546869732068617320616c726561647920657865637574656400000000000000600082015250565b6000612ce4601983611dea565b9150612cef82612cae565b602082019050919050565b60006020820190508181036000830152612d1381612cd7565b9050919050565b7f596f7520646f206e6f7420686176652073756666696369656e7420736861726560008201527f7300000000000000000000000000000000000000000000000000000000000000602082015250565b6000612d76602183611dea565b9150612d8182612d1a565b604082019050919050565b60006020820190508181036000830152612da581612d69565b9050919050565b7f4f6e6c7920746865206d616e616765722063616e20646973616c6c6f7720776960008201527f746864726177616c730000000000000000000000000000000000000000000000602082015250565b6000612e08602983611dea565b9150612e1382612dac565b604082019050919050565b60006020820190508181036000830152612e3781612dfb565b9050919050565b7f46756e6473206e6f7420617661696c61626c6500000000000000000000000000600082015250565b6000612e74601383611dea565b9150612e7f82612e3e565b602082019050919050565b60006020820190508181036000830152612ea381612e67565b905091905056fea2646970667358221220ad6c3c95a709f08f4a04917c16e5944c38bb0efd8dbbceaf1a01514de0bb0bb264736f6c634300080b0033",
  "immutableReferences": {},
  "source": "// SPDX-License-Identifier: GPL-3.0\r\npragma solidity >0.5.0 <0.9.0;\r\n\r\ncontract DAO {\r\n  \r\n  struct Proposal{\r\n    uint id;\r\n    string description;\r\n    uint amount;\r\n    address payable recipient;\r\n    uint votes;\r\n    uint end;\r\n    bool isExecuted;\r\n  }\r\n\r\n  mapping(address =>bool ) public isInvestor;//address is investor or not\r\n  mapping(address=>uint)  public numOfshares;//information about shares\r\n  mapping(address=>mapping(uint=>bool)) public isVoted;//voting information of an address for a proposal\r\n  mapping(address=>mapping(address=>bool)) public withdrwalStatus; //manager will set the status of withdrawal\r\n\r\n  address[] public investorList;\r\n  mapping(uint=>Proposal) public proposals; //ids and proposal\r\n  uint public totalShares;\r\n  uint public availableFunds;\r\n  uint public paticipationTimeEnd;\r\n  uint public nextProposalId;\r\n  uint public voteTime;\r\n  uint public quorum;\r\n  address public manager;\r\n\r\n  constructor(uint _paticipationTimeEnd,uint _voteTime,uint _quorum){\r\n    require(_quorum>0 && _quorum<100,\"The value should be between 0 and 100\");//quorum part mistake -2\r\n    paticipationTimeEnd=block.timestamp+_paticipationTimeEnd;\r\n    voteTime= _voteTime;\r\n    quorum= _quorum;\r\n    manager=msg.sender;\r\n  }\r\n\r\n  modifier onlyInvestor(){\r\n    require(isInvestor[msg.sender]==true,\"You are not an investor\");\r\n    _;\r\n  }\r\n    modifier onlyManager(){\r\n    require(manager==msg.sender,\"You are not a manager\");\r\n    _;\r\n  }\r\n\r\n  function contribution() external payable{//1 wei = 1 share, cost of 1 share = 1 wei;\r\n    require( paticipationTimeEnd>=block.timestamp,\"Contribution Time Ended\");\r\n    require(msg.value>0,\"Investiment amount should be greater than 0\");\r\n    isInvestor[msg.sender]=true;\r\n    numOfshares[msg.sender]+=msg.value;\r\n    totalShares+=msg.value;\r\n    availableFunds+=msg.value;\r\n    investorList.push(msg.sender);\r\n  }\r\n\r\n  function reedemShare(uint amount) external onlyInvestor(){//shares withdraw\r\n    require(numOfshares[msg.sender]>=amount,\"You do not have sufficient shares\");\r\n    require(availableFunds>=amount,\"Not sufficient funds\");\r\n    numOfshares[msg.sender]-=amount;\r\n    if(numOfshares[msg.sender]==0){\r\n      isInvestor[msg.sender]=false;\r\n    }\r\n    availableFunds-=amount;\r\n    payable(msg.sender).transfer(amount);\r\n  }\r\n  \r\n  function transferShare(uint amount,address to) public onlyInvestor(){\r\n    require(numOfshares[msg.sender]>=amount,\"Insufficient shares\");\r\n    require(availableFunds>=amount,\"Not sufficient funds\");\r\n    numOfshares[msg.sender]-=amount;\r\n      if(numOfshares[msg.sender]==0){\r\n      isInvestor[msg.sender]=false;\r\n    }\r\n    numOfshares[to]+=amount;\r\n    isInvestor[to]=true;\r\n  }\r\n\r\n  function createProposal(string calldata description,uint amount,address payable recipient) public onlyInvestor() {\r\n    require(amount<=availableFunds,\"Not enough funds\");\r\n    proposals[nextProposalId]= Proposal(nextProposalId,description,amount,recipient,0,block.timestamp+voteTime,false);\r\n    nextProposalId++;\r\n  }\r\n\r\n  function voteProposal(uint proposalId) public onlyInvestor(){\r\n    Proposal storage proposal = proposals[proposalId];\r\n    require(isVoted[msg.sender][proposalId]==false,\"You have already voted for this proposal id\");\r\n    require(proposals[proposalId].end>=block.timestamp,\"Voting time has ended\");\r\n    require(proposals[proposalId].isExecuted==false,\"This has already executed\");//mistake - 3\r\n    isVoted[msg.sender][proposalId]=true;\r\n    proposal.votes+=numOfshares[msg.sender];\r\n  }\r\n\r\nfunction executeProposal(uint proposalId) public onlyManager(){\r\n  Proposal storage proposal=proposals[proposalId];\r\n  require(((proposal.votes*100)/totalShares)>=quorum,\"Not greater than the quorum\");\r\n  proposal.isExecuted=true;\r\n  _transfer(proposal.amount,proposal.recipient);\r\n}\r\n\r\nfunction _transfer(uint amount,address payable to) internal{\r\n  require(amount <= availableFunds, 'Funds not available');\r\n  availableFunds -= amount;\r\n  to.transfer(amount);\r\n}\r\n\r\nmapping(address => mapping(address => bool)) withdrawalStatus;\r\n\r\nfunction allow(address _manager, address to) public {\r\n  require(msg.sender == _manager, \"Only the manager can allow withdrawals\");\r\n  withdrawalStatus[_manager][to] = true;\r\n}\r\n\r\nfunction disallow(address _manager, address to) public {\r\n  require(msg.sender == _manager, \"Only the manager can disallow withdrawals\");\r\n  withdrawalStatus[_manager][to] = false;\r\n}\r\n\r\nfunction withdrawAllEther() public {\r\n  require(withdrwalStatus[manager][msg.sender]==false,\"You are not allowed to withdraw\");\r\n    isInvestor[msg.sender]=false;\r\n  _transfer(numOfshares[msg.sender],payable(msg.sender));\r\n}\r\n\r\nfunction ProposalList() public view returns(Proposal[] memory) {\r\n  Proposal[] memory arr=new Proposal[](nextProposalId);\r\n  for(uint i=0;i<nextProposalId;i++){\r\n\r\n  arr[i]=proposals[i];\r\n\r\n  }\r\nreturn arr;\r\n}\r\nfunction investorsLists() public view returns(address[] memory){\r\n  return investorList;\r\n}\r\n \r\n}\r\n",
  "sourcePath": "E:\\placement\\CORE SUB\\Blockchain\\Code eater course\\Projects\\DAO\\DAO_Nik\\contracts\\dao.sol",
  "compiler": {
    "name": "solc",
    "version": "0.8.11+commit.d7f03943.Emscripten.clang"
  },
  "schemaVersion": "3.4.11",
  "updatedAt": "2023-03-26T05:14:29.013Z",
  "networkType": "ethereum",
  "devdoc": {
    "kind": "dev",
    "methods": {},
    "version": 1
  },
  "userdoc": {
    "kind": "user",
    "methods": {},
    "version": 1
  }
}